:100000000C9437000C949A000C949A000C949A006B
:100010000C949A000C949A000C949A000C949A00F8
:100020000C949A000C949A000C949A000C949A00E8
:100030000C949A000C949A000C9461000C949A0011
:100040000C949A000C949A000C949A000C949A00C8
:100050000C949A000C949A000C949A000C949A00B8
:100060000C949A000C949A00010001028000112463
:100070001FBECFEFD8E0DEBFCDBFE8E6F0E040E046
:1000800017C0B591A59135912591059107FD0CC03B
:1000900095918591EF01F92FE82F05900D92A21708
:1000A000B307D9F7FE0104C01D92A217B307E1F709
:1000B000ED36F40731F70E9483000C948F00F8941A
:0200C000FFCF70
:1000C2001F920F920FB60F9211248F939F938091DC
:1000D200000190910101019690930101809300012A
:1000E2008536910544F095B180E2892785B9109251
:1000F2000101109200019F918F910F900FBE0F90FE
:040102001F9018959D
:1001060082E084BD94E095BD9AEF97BD80936E0022
:0801160080E284B97894FFCF68
:10011E00EC010E949F000E949E00CE010E94A00052
:06012E00CE010E949C00BE
:040134000C94000027
:040138000E945F00C2
:02013C00089524
:02013E00089522
:02014000089520
:00000001FF
