:100000000C9434000C944F000C944F000C944F004F
:100010000C944F000C944F000C944F000C944F0024
:100020000C944F000C944F000C944F000C944F0014
:100030000C944F000C944F000C944F000C944F0004
:100040000C944F000C944F000C944F000C944F00F4
:100050000C944F000C944F000C944F000C944F00E4
:100060000C944F000C944F0011241FBECFEFD8E02A
:10007000DEBFCDBF0E944B000C944000F894FFCF30
:10008000EC010E9454000E945300CE010E945500D2
:06009000CE010E945100A8
:0800960081E085B984B9FFCFB8
:04009E000C940000BE
:0400A2000E943E007A
:0200A6000895BB
:0200A8000895B9
:0200AA000895B7
:00000001FF
