:100000000C9437000C9401020C9401020C94010230
:100010000C9401020C9401020C9401020C94010254
:100020000C9401020C9401020C9401020C94010244
:100030000C9401020C9401020C9401020C94010234
:100040000C9401020C9401020C9401020C94010224
:100050000C9401020C9401020C9401020C94010214
:100060000C9401020C94010201000104800011248F
:100070001FBECFEFD8E0DEBFCDBFE8E6F0E040E046
:1000800017C0B591A59135912591059107FD0CC03B
:1000900095918591EF01F92FE82F05900D92A21708
:1000A000B307D9F7FE0104C01D92A217B307E1F709
:1000B000ED36F40731F70E943A010C94D001F89420
:0200C000FFCF70
:1000C20010C00E94E20158F00E94DB0140F029F4C6
:1000D2005F3F29F00C94F00151110C94EA010C9449
:1000E200FE010E949D0168F39923B1F3552391F318
:1000F200951B550BBB27AA2762177307840738F095
:100102009F5F5F4F220F331F441FAA1FA9F335D0F1
:100112000E2E3AF0E0E832D091505040E695001CA5
:10012200CAF72BD0FE2F29D0660F771F881FBB1F5F
:10013200261737074807AB07B0E809F0BB0B802D3D
:10014200BF01FF2793585F4F3AF09E3F510578F069
:100152000C94F0010C94EA015F3FE4F3983ED4F36F
:10016200869577956795B795F7959F5FC9F7880F3D
:10017200911D9695879597F90895E1E0660F771F8F
:10018200881FBB1F621773078407BA0720F0621B20
:0E019200730B840BBA0BEE1F88F7E0950895EF
:1001A0000FC00E94DB0138F00E94E20120F095238D
:1001B00011F00C94F0010C94FE0111240C94EA014E
:1001C0000E949D0170F3959FC1F3950F50E0551F5C
:1001D000629FF001729FBB27F00DB11D639FAA279C
:1001E000F00DB11DAA1F649F6627B00DA11D661FEB
:1001F000829F2227B00DA11D621F739FB00DA11D0C
:10020000621F839FA00D611D221F749F3327A00DC5
:10021000611D231F849F600D211D822F762F6A2F61
:1002200011249F5750409AF0F1F088234AF0EE0FC6
:10023000FF1FBB1F661F771F881F91505040A9F7F3
:100240009E3F510580F00C94F0010C94EA015F3F51
:10025000E4F3983ED4F3869577956795B795F7952F
:10026000E7959F5FC1F7FE2B880F911D96958795A7
:0402700097F908955D
:1002740081E884BD82E085BD8FEF8AB9789420E05F
:1002840030E048EC52E460910001709101018091EA
:100294000201909103010E94F60120E030E04FE753
:1002A40053E40E94FA010E946E0167BD84E687BD93
:1002B4002FEF83E294EF215080409040E1F700C09B
:1002C400000017BC2FEF83E294EF21508040904050
:0802D400E1F700C00000EACFD1
:1002DC000E94A50188F09F5798F0B92F9927B75124
:1002EC00B0F0E1F0660F771F881F991F1AF0BA95CE
:1002FC00C9F714C0B13091F00E94E901B1E0089542
:10030C000C94E901672F782F8827B85F39F0B93F33
:10031C00CCF3869577956795B395D9F73EF4909580
:0E032C008095709561957F4F8F4F9F4F08957C
:10033A0057FD9058440F551F59F05F3F71F047958C
:10034A00880F97FB991F61F09F3F79F08795089571
:10035A00121613061406551FF2CF4695F1DF08C090
:10036A00161617061806991FF1CF869571056105AD
:04037A000894089546
:10037E00092E0394000C11F4882352F0BB0F40F4A5
:10038E00BF2B11F460FF04C06F5F7F4F8F4F9F4FE5
:02039E000895C0
:1003A000EC010E9406020E940502CE010E94070293
:0603B000CE010E940302D1
:0E03B60000240A941616170618060906089564
:0E03C40000240A941216130614060506089566
:0E03D200E894BB2766277727CB0197F908959B
:0C03E00097F99F6780E870E060E00895E6
:0803EC000E9461000C94BF01A6
:0803F4000E94D0000C94BF012F
:0603FC009FEF80EC089564
:040402000C94000056
:040406000E945F00F1
:02040A00089553
:02040C00089551
:02040E0008954F
:00000001FF
