:100000000C9434000C94E8000C94E8000C94E80084
:100010000C94E8000C94E8000C94E8000C94E800C0
:100020000C94E8000C94E8000C94E8000C94E800B0
:100030000C94E8000C94E8000C94E8000C94E800A0
:100040000C94E8000C94E8000C94E8000C94E80090
:100050000C94E8000C94E8000C94E8000C94E80080
:100060000C94E8000C94E80011241FBECFEFD8E0F8
:10007000DEBFCDBF0E947F000C94DD00F894FFCF5F
:0A00800019001E192332284B2D64CD
:10008A00CF93DF9360E070E0CFEFDFEF50E02BC05B
:10009A009B01220F331F032E000C440B20583F4FA5
:1000AA004F4FF901249147FD2081FC01E21BF10920
:1000BA00DF0122F4AA27BB27AE1BBF0BAC17BD0773
:1000CA0080F49B01220F331F2F5F3F4F032E000C3A
:1000DA00440B20583F4F4F4FF901549147FD50812F
:1000EA00ED016F5F7F4F6530710590F2852FDF91CB
:0400FA00CF91089505
:1000FE000E94CC0083E290E00E9445002FEF829F89
:10010E00C001112464E670E00E94A40067BD68BDC2
:10011E00CB019927909389008093880090938B0050
:10012E0080938A006093B3006093B40087EA91E6EF
:0A013E000197F1F700C00000DDCFCB
:1001480097FB072E16F4009407D077FD09D00E947C
:10015800B80007FC05D03EF4909581959F4F08950F
:08016800709561957F4F089529
:10017000AA1BBB1B51E107C0AA1FBB1FA617B707CD
:1001800010F0A61BB70B881F991F5A95A9F78095E9
:080190009095BC01CD0108951A
:1001980093EA94BD81E085BD9093800080938100AF
:1001A8009093B0008093B10088E68AB98EE084B954
:0201B8000895A8
:1001BA00EC010E94ED000E94EC00CE010E94EE00CC
:0601CA00CE010E94EA00D4
:0401D0000C9400008B
:0401D4000E943E0047
:0201D800089588
:0201DA00089586
:0201DC00089584
:00000001FF
