:100000000C9434000C9488000C9488000C948800A4
:100010000C9488000C9488000C9488000C94880040
:100020000C9488000C9488000C9488000C94880030
:100030000C9488000C9488000C9488000C94880020
:100040000C9488000C9488000C9488000C94880010
:100050000C9488000C9488000C9488000C94880000
:100060000C9488000C94880011241FBECFEFD8E0B8
:10007000DEBFCDBF0E9440000C947D00F894FFCFFE
:100080000E946C0084E08093C50080E18093C400EE
:1000900088E08093C10086E08093C2008FEF87BD27
:1000A00088BD2FEF30E03093890020938800309393
:1000B0008B0020938A008093B3008093B40088E380
:1000C0008093C6002FEF83ED90E321508040904055
:0800D000E1F700C00000E2CFDF
:1000D80093EA94BD81E085BD909380008093810070
:1000E8009093B0008093B10088E68AB98EE084B915
:0200F800089569
:1000FA00EC010E948D000E948C00CE010E948E00AD
:06010A00CE010E948A00F4
:040110000C9400004B
:040114000E943E0007
:02011800089548
:02011A00089546
:02011C00089544
:00000001FF
