:100000000C9434000C947A000C947A000C947A00CE
:100010000C947A000C947A000C947A000C947A0078
:100020000C947A000C947A000C947A000C947A0068
:100030000C947A000C947A000C947A000C947A0058
:100040000C947A000C947A000C947A000C947A0048
:100050000C947A000C947A000C947A000C947A0038
:100060000C947A000C947A0011241FBECFEFD8E0D4
:10007000DEBFCDBF0E9440000C946F00F894FFCF0C
:100080000E945E0017BC8FEF88BD1092890010920D
:1000900088002FEF30E030938B0020938A0010927D
:1000A000B3008093B4002AEA36EE86E991E021504D
:0C00B000304080409040D9F70000E4CFC1
:1000BC0093EA94BD81E085BD90938000809381008C
:1000CC009093B0008093B10088E68AB98EE084B931
:0200DC00089585
:1000DE00EC010E947F000E947E00CE010E948000F3
:0600EE00CE010E947C001F
:0400F4000C94000068
:0400F8000E943E0024
:0200FC00089565
:0200FE00089563
:02010000089560
:00000001FF
