:100000000C9434000C9489000C9489000C948900A1
:100010000C9489000C9489000C9489000C9489003C
:100020000C9489000C9489000C9489000C9489002C
:100030000C9489000C9489000C9489000C9489001C
:100040000C9489000C9489000C9489000C9489000C
:100050000C9489000C9489000C9489000C948900FC
:100060000C9489000C94890011241FBECFEFD8E0B6
:10007000DEBFCDBF0E9440000C947E00F894FFCFFD
:100080000E946D0084E08093C50080E18093C400ED
:1000900088E08093C10086E08093C20084E687BD3B
:1000A00088BD24E630E030938900209388003093A7
:1000B0008B0020938A008093B3008093B40088E380
:1000C0008093C6002AEA36EE86E991E0215030405E
:0A00D00080409040D9F70000E1CF16
:1000DA0093EA94BD81E085BD90938000809381006E
:1000EA009093B0008093B10088E68AB98EE084B913
:0200FA00089567
:1000FC00EC010E948E000E948D00CE010E948F00A8
:06010C00CE010E948B00F1
:040112000C94000049
:040116000E943E0005
:02011A00089546
:02011C00089544
:02011E00089542
:00000001FF
