:1000000036C00000EDC10000EBC10000E9C10000F6
:10001000E7C10000E5C10000E3C10000E1C100004C
:10002000DFC10000DDC10000DBC10000D9C100005C
:10003000D7C10000D5C10000D3C10000D1C100006C
:10004000CFC10000CDC10000CBC10000C9C100007C
:10005000C7C10000C5C10000C3C10000C1C100008C
:10006000BFC10000BDC100000100010480001124D7
:100070001FBECFEFD8E0DEBFCDBFE8E6F0E040E046
:1000800017C0B591A59135912591059107FD0CC03B
:1000900095918591EF01F92FE82F05900D92A21708
:1000A000B307D9F7FE0104C01D92A217B307E1F709
:0E00B000ED36F40731F70AD002C0F894FFCF06
:0E00BE00EC0144D040D0CE013FD0CE013ED068
:1000CC0081E884BD84E085BD8FEF8AB9789420E007
:1000DC0030E048EC52E46091000170910101809194
:1000EC000201909103015AD020E030E04FE753E435
:1000FC0027D028D067BD94E68AE097BD2FEF39E66C
:10010C0048E1215030404040E1F700C0000087BD7D
:10011C002FEF39E648E1215030404040E1F700C074
:10012C00000017BC2FEF39E648E121503040404029
:08013C00E1F700C00000E1CF73
:0201440008951C
:0201460008951A
:02014800B8DF1E
:02014A00089516
:04014C0040D02EC0B1
:10015000AFD088F09F5790F0B92F9927B751A0F0F2
:10016000D1F0660F771F881F991F1AF0BA95C9F74B
:1001700012C0B13081F08DD0B1E008958AC0672FF0
:10018000782F8827B85F39F0B93FCCF386957795FB
:100190006795B395D9F73EF49095809570956195E4
:0801A0007F4F8F4F9F4F089520
:0401A8009DD000C026
:1001AC00092E0394000C11F4882352F0BB0F40F479
:1001BC00BF2B11F460FF04C06F5F7F4F8F4F9F4FB9
:0201CC00089594
:1001CE000AC000D128F0F7D018F0952309F0EAC044
:1001DE00EFC0112458C05DD0A0F3959FD1F3950FB9
:1001EE0050E0551F629FF001729FBB27F00DB11DAD
:1001FE00639FAA27F00DB11DAA1F649F6627B00D3D
:10020E00A11D661F829F2227B00DA11D621F739F25
:10021E00B00DA11D621F839FA00D611D221F749F33
:10022E003327A00D611D231F849F600D211D822F7A
:10023E00762F6A2F11249F5750408AF0E1F08823C1
:10024E004AF0EE0FFF1FBB1F661F771F881F9150CE
:10025E005040A9F79E3F510570F0A4C014C05F3FF7
:10026E00ECF3983EDCF3869577956795B795F79501
:10027E00E7959F5FC1F7FE2B880F911D9695879589
:04028E0097F908953F
:0E029200E894BB2766277727CB0197F90895DC
:1002A00057FD9058440F551F59F05F3F71F0479527
:1002B000880F97FB991F61F09F3F79F0879508950C
:1002C000121613061406551FF2CF4695F1DF08C02B
:1002D000161617061806991FF1CF86957105610548
:0402E00008940895E1
:1002E4000BC06ED040F073D030F021F45F3F19F0B2
:1002F4005EC05111CDCF61C0D1DF98F39923C9F30A
:100304005523B1F3951B550BBB27AA276217730717
:10031400840738F09F5F5F4F220F331F441FAA1FCB
:10032400A9F333D00E2E3AF0E0E830D0915050408B
:10033400E695001CCAF729D0FE2F27D0660F771F39
:10034400881FBB1F261737074807AB07B0E809F01B
:10035400BB0B802DBF01FF2793585F4F2AF09E3FB0
:10036400510568F024C094CF5F3FECF3983EDCF372
:10037400869577956795B795F7959F5FC9F7880F29
:10038400911D9695879597F90895E1E0660F771F7B
:10039400881FBB1F621773078407BA0720F0621B0C
:0E03A400730B840BBA0BEE1F88F7E0950895DB
:0C03B20097F99F6780E870E060E0089514
:0603BE009FEF80EC0895A2
:0E03C40000240A941216130614060506089566
:0E03D20000240A941616170618060906089548
:0203E0000FCE3E
:00000001FF
